{
  "contractName": "HumanStandardTokenFactory",
  "abi": [
    {
      "constant": false,
      "inputs": [
        {
          "name": "_initialAmount",
          "type": "uint256"
        },
        {
          "name": "_name",
          "type": "string"
        },
        {
          "name": "_decimals",
          "type": "uint8"
        },
        {
          "name": "_symbol",
          "type": "string"
        }
      ],
      "name": "createHumanStandardToken",
      "outputs": [
        {
          "name": "",
          "type": "address"
        }
      ],
      "payable": false,
      "stateMutability": "nonpayable",
      "type": "function"
    },
    {
      "constant": true,
      "inputs": [
        {
          "name": "",
          "type": "address"
        },
        {
          "name": "",
          "type": "uint256"
        }
      ],
      "name": "created",
      "outputs": [
        {
          "name": "",
          "type": "address"
        }
      ],
      "payable": false,
      "stateMutability": "view",
      "type": "function"
    },
    {
      "constant": true,
      "inputs": [],
      "name": "humanStandardByteCode",
      "outputs": [
        {
          "name": "",
          "type": "bytes"
        }
      ],
      "payable": false,
      "stateMutability": "view",
      "type": "function"
    },
    {
      "constant": true,
      "inputs": [
        {
          "name": "",
          "type": "address"
        }
      ],
      "name": "isHumanToken",
      "outputs": [
        {
          "name": "",
          "type": "bool"
        }
      ],
      "payable": false,
      "stateMutability": "view",
      "type": "function"
    },
    {
      "constant": true,
      "inputs": [
        {
          "name": "_tokenContract",
          "type": "address"
        }
      ],
      "name": "verifyHumanStandardToken",
      "outputs": [
        {
          "name": "",
          "type": "bool"
        }
      ],
      "payable": false,
      "stateMutability": "view",
      "type": "function"
    },
    {
      "inputs": [],
      "payable": false,
      "stateMutability": "nonpayable",
      "type": "constructor"
    }
  ],
  "bytecode": "0x606060405234156200001057600080fd5b6000620000996127106040805190810160405280600c81526020017f56657269667920546f6b656e0000000000000000000000000000000000000000815250600360408051908101604052600381527f5654580000000000000000000000000000000000000000000000000000000000602082015264010000000062000226620000d182021704565b9050620000b48164010000000062000642620002eb82021704565b6002908051620000c99291602001906200031b565b50506200040f565b60008085858585620000e2620003a0565b84815260ff83166040820152608060208201818152906060830190830186818151815260200191508051906020019080838360005b838110156200013157808201518382015260200162000117565b50505050905090810190601f1680156200015f5780820380516001836020036101000a031916815260200191505b50838103825284818151815260200191508051906020019080838360005b83811015620001975780820151838201526020016200017d565b50505050905090810190601f168015620001c55780820380516001836020036101000a031916815260200191505b509650505050505050604051809103906000f0801515620001e557600080fd5b600160a060020a033316600090815260208190526040902080549192509060018101620002138382620003b1565b5060009182526020808320919091018054600160a060020a031916600160a060020a0385169081179091558083526001918290526040808420805460ff19169093179092559163a9059cbb9133918a9151602001526040517c010000000000000000000000000000000000000000000000000000000063ffffffff8516028152600160a060020a0390921660048301526024820152604401602060405180830381600087803b1515620002c557600080fd5b6102c65a03f11515620002d757600080fd5b505050604051805150909695505050505050565b620002f5620003dd565b813b604051603f8201601f19168101604052818152915080600060208401853c50919050565b828054600181600116156101000203166002900490600052602060002090601f016020900481019282601f106200035e57805160ff19168380011785556200038e565b828001600101855582156200038e579182015b828111156200038e57825182559160200191906001019062000371565b506200039c929150620003ef565b5090565b6040516109eb806200151283390190565b815481835581811511620003d857600083815260209020620003d8918101908301620003ef565b505050565b60206040519081016040526000815290565b6200040c91905b808211156200039c5760008155600101620003f6565b90565b6110f3806200041f6000396000f300606060405263ffffffff7c010000000000000000000000000000000000000000000000000000000060003504166308216c0f81146100685780635f8dead314610128578063acad94ae1461014a578063ddea6df3146101d4578063fc94dd181461020757600080fd5b341561007357600080fd5b61010c600480359060446024803590810190830135806020601f8201819004810201604051908101604052818152929190602084018383808284378201915050505050509190803560ff1690602001909190803590602001908201803590602001908080601f01602080910402602001604051908101604052818152929190602084018383808284375094965061022695505050505050565b604051600160a060020a03909116815260200160405180910390f35b341561013357600080fd5b61010c600160a060020a0360043516602435610440565b341561015557600080fd5b61015d610477565b60405160208082528190810183818151815260200191508051906020019080838360005b83811015610199578082015183820152602001610181565b50505050905090810190601f1680156101c65780820380516001836020036101000a031916815260200191505b509250505060405180910390f35b34156101df57600080fd5b6101f3600160a060020a0360043516610515565b604051901515815260200160405180910390f35b341561021257600080fd5b6101f3600160a060020a036004351661052a565b60008085858585610235610670565b84815260ff83166040820152608060208201818152906060830190830186818151815260200191508051906020019080838360005b8381101561028257808201518382015260200161026a565b50505050905090810190601f1680156102af5780820380516001836020036101000a031916815260200191505b50838103825284818151815260200191508051906020019080838360005b838110156102e55780820151838201526020016102cd565b50505050905090810190601f1680156103125780820380516001836020036101000a031916815260200191505b509650505050505050604051809103906000f080151561033157600080fd5b600160a060020a03331660009081526020819052604090208054919250906001810161035d8382610680565b506000918252602080832091909101805473ffffffffffffffffffffffffffffffffffffffff1916600160a060020a0385169081179091558083526001918290526040808420805460ff19169093179092559163a9059cbb9133918a9151602001526040517c010000000000000000000000000000000000000000000000000000000063ffffffff8516028152600160a060020a0390921660048301526024820152604401602060405180830381600087803b151561041b57600080fd5b6102c65a03f1151561042c57600080fd5b505050604051805150909695505050505050565b60006020528160005260406000208181548110151561045b57fe5b600091825260209091200154600160a060020a03169150829050565b60028054600181600116156101000203166002900480601f01602080910402602001604051908101604052809291908181526020018280546001816001161561010002031660029004801561050d5780601f106104e25761010080835404028352916020019161050d565b820191906000526020600020905b8154815290600101906020018083116104f057829003601f168201915b505050505081565b60016020526000908152604090205460ff1681565b60006105346106a9565b600061053f84610642565b600280549193506000196101006001841615020190911604825114610567576000925061063b565b5060005b8151811015610636576002805482906000196101006001831615020116829004811061059357fe5b8154600116156105b25790600052602060002090602091828204019190065b9054901a60f860020a027effffffffffffffffffffffffffffffffffffffffffffffffffffffffffffff19168282815181106105ea57fe5b016020015160f860020a900460f860020a027effffffffffffffffffffffffffffffffffffffffffffffffffffffffffffff191614151561062e576000925061063b565b60010161056b565b600192505b5050919050565b61064a6106a9565b813b604051603f8201601f19168101604052818152915080600060208401853c50919050565b6040516109eb806106dd83390190565b8154818355818115116106a4576000838152602090206106a49181019083016106bb565b505050565b60206040519081016040526000815290565b6106d991905b808211156106d557600081556001016106c1565b5090565b905600606060405260408051908101604052600481527f48302e31000000000000000000000000000000000000000000000000000000006020820152600690805161004b9291602001906100e7565b50341561005757600080fd5b6040516109eb3803806109eb833981016040528080519190602001805182019190602001805191906020018051600160a060020a0333166000908152600160205260408120879055869055909101905060038380516100ba9291602001906100e7565b506004805460ff191660ff841617905560058180516100dd9291602001906100e7565b5050505050610182565b828054600181600116156101000203166002900490600052602060002090601f016020900481019282601f1061012857805160ff1916838001178555610155565b82800160010185558215610155579182015b8281111561015557825182559160200191906001019061013a565b50610161929150610165565b5090565b61017f91905b80821115610161576000815560010161016b565b90565b61085a806101916000396000f300606060405236156100935763ffffffff60e060020a60003504166306fdde038114610098578063095ea7b31461012257806318160ddd1461015857806323b872dd1461017d578063313ce567146101a557806354fd4d50146101ce57806370a08231146101e157806395d89b4114610200578063a9059cbb14610213578063cae9ca5114610235578063dd62ed3e1461029a575b600080fd5b34156100a357600080fd5b6100ab6102bf565b60405160208082528190810183818151815260200191508051906020019080838360005b838110156100e75780820151838201526020016100cf565b50505050905090810190601f1680156101145780820380516001836020036101000a031916815260200191505b509250505060405180910390f35b341561012d57600080fd5b610144600160a060020a036004351660243561035d565b604051901515815260200160405180910390f35b341561016357600080fd5b61016b6103c9565b60405190815260200160405180910390f35b341561018857600080fd5b610144600160a060020a03600435811690602435166044356103cf565b34156101b057600080fd5b6101b86104d5565b60405160ff909116815260200160405180910390f35b34156101d957600080fd5b6100ab6104de565b34156101ec57600080fd5b61016b600160a060020a0360043516610549565b341561020b57600080fd5b6100ab610564565b341561021e57600080fd5b610144600160a060020a03600435166024356105cf565b341561024057600080fd5b61014460048035600160a060020a03169060248035919060649060443590810190830135806020601f8201819004810201604051908101604052818152929190602084018383808284375094965061066395505050505050565b34156102a557600080fd5b61016b600160a060020a0360043581169060243516610803565b60038054600181600116156101000203166002900480601f0160208091040260200160405190810160405280929190818152602001828054600181600116156101000203166002900480156103555780601f1061032a57610100808354040283529160200191610355565b820191906000526020600020905b81548152906001019060200180831161033857829003601f168201915b505050505081565b600160a060020a03338116600081815260026020908152604080832094871680845294909152808220859055909291907f8c5be1e5ebec7d5bd14f71427d1e84f3dd0314c0f7b2291e5b200ac8c7c3b9259085905190815260200160405180910390a350600192915050565b60005481565b600160a060020a0380841660008181526002602090815260408083203390951683529381528382205492825260019052918220548390108015906104135750828110155b151561041e57600080fd5b600160a060020a038085166000908152600160205260408082208054870190559187168152208054849003905560001981101561048357600160a060020a03808616600090815260026020908152604080832033909416835292905220805484900390555b83600160a060020a031685600160a060020a03167fddf252ad1be2c89b69c2b068fc378daa952ba7f163c4a11628f55a4df523b3ef8560405190815260200160405180910390a3506001949350505050565b60045460ff1681565b60068054600181600116156101000203166002900480601f0160208091040260200160405190810160405280929190818152602001828054600181600116156101000203166002900480156103555780601f1061032a57610100808354040283529160200191610355565b600160a060020a031660009081526001602052604090205490565b60058054600181600116156101000203166002900480601f0160208091040260200160405190810160405280929190818152602001828054600181600116156101000203166002900480156103555780601f1061032a57610100808354040283529160200191610355565b600160a060020a033316600090815260016020526040812054829010156105f557600080fd5b600160a060020a033381166000818152600160205260408082208054879003905592861680825290839020805486019055917fddf252ad1be2c89b69c2b068fc378daa952ba7f163c4a11628f55a4df523b3ef9085905190815260200160405180910390a350600192915050565b600160a060020a03338116600081815260026020908152604080832094881680845294909152808220869055909291907f8c5be1e5ebec7d5bd14f71427d1e84f3dd0314c0f7b2291e5b200ac8c7c3b9259086905190815260200160405180910390a383600160a060020a03166040517f72656365697665417070726f76616c28616464726573732c75696e743235362c81527f616464726573732c6279746573290000000000000000000000000000000000006020820152602e01604051809103902060e060020a9004338530866040518563ffffffff1660e060020a0281526004018085600160a060020a0316600160a060020a0316815260200184815260200183600160a060020a0316600160a060020a03168152602001828051906020019080838360005b838110156107a457808201518382015260200161078c565b50505050905090810190601f1680156107d15780820380516001836020036101000a031916815260200191505b5094505050505060006040518083038160008761646e5a03f19250505015156107f957600080fd5b5060019392505050565b600160a060020a039182166000908152600260209081526040808320939094168252919091522054905600a165627a7a72305820fbf5acba563563d969232729c4fe3da8c099e2ca82d0f7a542c918fcea4b1a0a0029a165627a7a72305820464104eb414f2da064f6b386e4c7f11c9b0e9cc54005bba649b63cd0c204a44d0029606060405260408051908101604052600481527f48302e31000000000000000000000000000000000000000000000000000000006020820152600690805161004b9291602001906100e7565b50341561005757600080fd5b6040516109eb3803806109eb833981016040528080519190602001805182019190602001805191906020018051600160a060020a0333166000908152600160205260408120879055869055909101905060038380516100ba9291602001906100e7565b506004805460ff191660ff841617905560058180516100dd9291602001906100e7565b5050505050610182565b828054600181600116156101000203166002900490600052602060002090601f016020900481019282601f1061012857805160ff1916838001178555610155565b82800160010185558215610155579182015b8281111561015557825182559160200191906001019061013a565b50610161929150610165565b5090565b61017f91905b80821115610161576000815560010161016b565b90565b61085a806101916000396000f300606060405236156100935763ffffffff60e060020a60003504166306fdde038114610098578063095ea7b31461012257806318160ddd1461015857806323b872dd1461017d578063313ce567146101a557806354fd4d50146101ce57806370a08231146101e157806395d89b4114610200578063a9059cbb14610213578063cae9ca5114610235578063dd62ed3e1461029a575b600080fd5b34156100a357600080fd5b6100ab6102bf565b60405160208082528190810183818151815260200191508051906020019080838360005b838110156100e75780820151838201526020016100cf565b50505050905090810190601f1680156101145780820380516001836020036101000a031916815260200191505b509250505060405180910390f35b341561012d57600080fd5b610144600160a060020a036004351660243561035d565b604051901515815260200160405180910390f35b341561016357600080fd5b61016b6103c9565b60405190815260200160405180910390f35b341561018857600080fd5b610144600160a060020a03600435811690602435166044356103cf565b34156101b057600080fd5b6101b86104d5565b60405160ff909116815260200160405180910390f35b34156101d957600080fd5b6100ab6104de565b34156101ec57600080fd5b61016b600160a060020a0360043516610549565b341561020b57600080fd5b6100ab610564565b341561021e57600080fd5b610144600160a060020a03600435166024356105cf565b341561024057600080fd5b61014460048035600160a060020a03169060248035919060649060443590810190830135806020601f8201819004810201604051908101604052818152929190602084018383808284375094965061066395505050505050565b34156102a557600080fd5b61016b600160a060020a0360043581169060243516610803565b60038054600181600116156101000203166002900480601f0160208091040260200160405190810160405280929190818152602001828054600181600116156101000203166002900480156103555780601f1061032a57610100808354040283529160200191610355565b820191906000526020600020905b81548152906001019060200180831161033857829003601f168201915b505050505081565b600160a060020a03338116600081815260026020908152604080832094871680845294909152808220859055909291907f8c5be1e5ebec7d5bd14f71427d1e84f3dd0314c0f7b2291e5b200ac8c7c3b9259085905190815260200160405180910390a350600192915050565b60005481565b600160a060020a0380841660008181526002602090815260408083203390951683529381528382205492825260019052918220548390108015906104135750828110155b151561041e57600080fd5b600160a060020a038085166000908152600160205260408082208054870190559187168152208054849003905560001981101561048357600160a060020a03808616600090815260026020908152604080832033909416835292905220805484900390555b83600160a060020a031685600160a060020a03167fddf252ad1be2c89b69c2b068fc378daa952ba7f163c4a11628f55a4df523b3ef8560405190815260200160405180910390a3506001949350505050565b60045460ff1681565b60068054600181600116156101000203166002900480601f0160208091040260200160405190810160405280929190818152602001828054600181600116156101000203166002900480156103555780601f1061032a57610100808354040283529160200191610355565b600160a060020a031660009081526001602052604090205490565b60058054600181600116156101000203166002900480601f0160208091040260200160405190810160405280929190818152602001828054600181600116156101000203166002900480156103555780601f1061032a57610100808354040283529160200191610355565b600160a060020a033316600090815260016020526040812054829010156105f557600080fd5b600160a060020a033381166000818152600160205260408082208054879003905592861680825290839020805486019055917fddf252ad1be2c89b69c2b068fc378daa952ba7f163c4a11628f55a4df523b3ef9085905190815260200160405180910390a350600192915050565b600160a060020a03338116600081815260026020908152604080832094881680845294909152808220869055909291907f8c5be1e5ebec7d5bd14f71427d1e84f3dd0314c0f7b2291e5b200ac8c7c3b9259086905190815260200160405180910390a383600160a060020a03166040517f72656365697665417070726f76616c28616464726573732c75696e743235362c81527f616464726573732c6279746573290000000000000000000000000000000000006020820152602e01604051809103902060e060020a9004338530866040518563ffffffff1660e060020a0281526004018085600160a060020a0316600160a060020a0316815260200184815260200183600160a060020a0316600160a060020a03168152602001828051906020019080838360005b838110156107a457808201518382015260200161078c565b50505050905090810190601f1680156107d15780820380516001836020036101000a031916815260200191505b5094505050505060006040518083038160008761646e5a03f19250505015156107f957600080fd5b5060019392505050565b600160a060020a039182166000908152600260209081526040808320939094168252919091522054905600a165627a7a72305820fbf5acba563563d969232729c4fe3da8c099e2ca82d0f7a542c918fcea4b1a0a0029",
  "source": "import \"./HumanStandardToken.sol\";\n\npragma solidity ^0.4.8;\n\ncontract HumanStandardTokenFactory {\n\n    mapping(address => address[]) public created;\n    mapping(address => bool) public isHumanToken; //verify without having to do a bytecode check.\n    bytes public humanStandardByteCode;\n\n    function HumanStandardTokenFactory() public {\n      //upon creation of the factory, deploy a HumanStandardToken (parameters are meaningless) and store the bytecode provably.\n      address verifiedToken = createHumanStandardToken(10000, \"Verify Token\", 3, \"VTX\");\n      humanStandardByteCode = codeAt(verifiedToken);\n    }\n\n    //verifies if a contract that has been deployed is a Human Standard Token.\n    //NOTE: This is a very expensive function, and should only be used in an eth_call. ~800k gas\n    function verifyHumanStandardToken(address _tokenContract) public view returns (bool) {\n      bytes memory fetchedTokenByteCode = codeAt(_tokenContract);\n\n      if (fetchedTokenByteCode.length != humanStandardByteCode.length) {\n        return false; //clear mismatch\n      }\n\n      //starting iterating through it if lengths match\n      for (uint i = 0; i < fetchedTokenByteCode.length; i ++) {\n        if (fetchedTokenByteCode[i] != humanStandardByteCode[i]) {\n          return false;\n        }\n      }\n\n      return true;\n    }\n\n    //for now, keeping this internal. Ideally there should also be a live version of this that any contract can use, lib-style.\n    //retrieves the bytecode at a specific address.\n    function codeAt(address _addr) internal view returns (bytes o_code) {\n      assembly {\n          // retrieve the size of the code, this needs assembly\n          let size := extcodesize(_addr)\n          // allocate output byte array - this could also be done without assembly\n          // by using o_code = new bytes(size)\n          o_code := mload(0x40)\n          // new \"memory end\" including padding\n          mstore(0x40, add(o_code, and(add(add(size, 0x20), 0x1f), not(0x1f))))\n          // store length in memory\n          mstore(o_code, size)\n          // actually retrieve the code, this needs assembly\n          extcodecopy(_addr, add(o_code, 0x20), 0, size)\n      }\n    }\n\n    function createHumanStandardToken(uint256 _initialAmount, string _name, uint8 _decimals, string _symbol) public returns (address) {\n\n        HumanStandardToken newToken = (new HumanStandardToken(_initialAmount, _name, _decimals, _symbol));\n        created[msg.sender].push(address(newToken));\n        isHumanToken[address(newToken)] = true;\n        newToken.transfer(msg.sender, _initialAmount); //the factory will own the created tokens. You must transfer them.\n        return address(newToken);\n    }\n}\n",
  "sourcePath": "/home/mgsgde/bankathon/Tokens/contracts/HumanStandardTokenFactory.sol",
  "schemaVersion": "1.0.0",
  "updatedAt": "2017-11-22T21:58:11.164Z"
}