{
  "contractName": "SampleRecipientSuccess",
  "abi": [
    {
      "constant": true,
      "inputs": [],
      "name": "value",
      "outputs": [
        {
          "name": "",
          "type": "uint256"
        }
      ],
      "payable": false,
      "stateMutability": "view",
      "type": "function"
    },
    {
      "constant": true,
      "inputs": [],
      "name": "tokenContract",
      "outputs": [
        {
          "name": "",
          "type": "address"
        }
      ],
      "payable": false,
      "stateMutability": "view",
      "type": "function"
    },
    {
      "constant": true,
      "inputs": [],
      "name": "extraData",
      "outputs": [
        {
          "name": "",
          "type": "bytes"
        }
      ],
      "payable": false,
      "stateMutability": "view",
      "type": "function"
    },
    {
      "constant": false,
      "inputs": [
        {
          "name": "_from",
          "type": "address"
        },
        {
          "name": "_value",
          "type": "uint256"
        },
        {
          "name": "_tokenContract",
          "type": "address"
        },
        {
          "name": "_extraData",
          "type": "bytes"
        }
      ],
      "name": "receiveApproval",
      "outputs": [],
      "payable": false,
      "stateMutability": "nonpayable",
      "type": "function"
    },
    {
      "constant": true,
      "inputs": [],
      "name": "from",
      "outputs": [
        {
          "name": "",
          "type": "address"
        }
      ],
      "payable": false,
      "stateMutability": "view",
      "type": "function"
    },
    {
      "anonymous": false,
      "inputs": [
        {
          "indexed": false,
          "name": "_value",
          "type": "uint256"
        }
      ],
      "name": "ReceivedApproval",
      "type": "event"
    }
  ],
  "bytecode": "0x6060604052341561000f57600080fd5b6104208061001e6000396000f300606060405263ffffffff7c01000000000000000000000000000000000000000000000000000000006000350416633fa4f245811461006857806355a373d61461008d578063609d3334146100c95780638f4ffcb114610153578063d5ce3389146101ce57600080fd5b341561007357600080fd5b61007b6101e1565b60405190815260200160405180910390f35b341561009857600080fd5b6100a06101e7565b60405173ffffffffffffffffffffffffffffffffffffffff909116815260200160405180910390f35b34156100d457600080fd5b6100dc610203565b60405160208082528190810183818151815260200191508051906020019080838360005b83811015610118578082015183820152602001610100565b50505050905090810190601f1680156101455780820380516001836020036101000a031916815260200191505b509250505060405180910390f35b341561015e57600080fd5b6101cc6004803573ffffffffffffffffffffffffffffffffffffffff90811691602480359260443516919060849060643590810190830135806020601f820181900481020160405190810160405281815292919060208401838380828437509496506102a195505050505050565b005b34156101d957600080fd5b6100a061033d565b60015481565b60025473ffffffffffffffffffffffffffffffffffffffff1681565b60038054600181600116156101000203166002900480601f0160208091040260200160405190810160405280929190818152602001828054600181600116156101000203166002900480156102995780601f1061026e57610100808354040283529160200191610299565b820191906000526020600020905b81548152906001019060200180831161027c57829003601f168201915b505050505081565b6000805473ffffffffffffffffffffffffffffffffffffffff80871673ffffffffffffffffffffffffffffffffffffffff1992831617909255600185905560028054928516929091169190911790556003818051610303929160200190610359565b507f2db24179b782aab7c5ab64add7f84d4f6c845d0779695371f29be1f658d043cd8360405190815260200160405180910390a150505050565b60005473ffffffffffffffffffffffffffffffffffffffff1681565b828054600181600116156101000203166002900490600052602060002090601f016020900481019282601f1061039a57805160ff19168380011785556103c7565b828001600101855582156103c7579182015b828111156103c75782518255916020019190600101906103ac565b506103d39291506103d7565b5090565b6103f191905b808211156103d357600081556001016103dd565b905600a165627a7a7230582031be6847efb1f1a2cef5ee3a6f46fc9dabbb736b76f59982cb387abdd93eb78f0029",
  "source": "/*\nThis is an example contract that helps test the functionality of the approveAndCall() functionality of HumanStandardToken.sol.\nThis one assumes successful receival of approval.\n*/\npragma solidity ^0.4.8;\n\ncontract SampleRecipientSuccess {\n  /* A Generic receiving function for contracts that accept tokens */\n  address public from;\n  uint256 public value;\n  address public tokenContract;\n  bytes public extraData;\n\n  event ReceivedApproval(uint256 _value);\n\n  function receiveApproval(address _from, uint256 _value, address _tokenContract, bytes _extraData)\n  public {\n    from = _from;\n    value = _value;\n    tokenContract = _tokenContract;\n    extraData = _extraData;\n    ReceivedApproval(_value);\n  }\n}\n",
  "sourcePath": "/home/mgsgde/bankathon/Tokens/contracts/SampleRecipientSuccess.sol",
  "schemaVersion": "1.0.0",
  "updatedAt": "2017-11-22T21:58:11.164Z"
}